:201E000012010002FFFFFF40501D8C600100010203010A060002FFFFFF400100090219009B
:151E200001010080320904000001FFFFFF00070582020002005C
:191E36000902190001010080320904000001FFFFFF0007058202400000E0
:201E5000040309040E0373006900670072006F006B0010036600780032006C006100660068
:201E700077001E0373006900670072006F006B002000460058003200200038006300680018
:021E9000000050
:040000000201B9320E
:01000B0032C2
:0100130032BA
:01001B0032B2
:0100230032AA
:03002B000204E0EC
:01003300329A
:01003B003292
:01004300328A
:01004B003282
:01005300327A
:01005B003272
:01006300326A
:03006B0002039CF1
:030073000210C4B4
:03007B0002097EF9
:030083000210C1A7
:03008B000204422A
:03009300020491D3
:03009B0002097BDC
:0300A3000210EE5A
:0300AB000210EF51
:0300B3000210F048
:0300BB000210F33D
:0300C3000210C365
:0300CB000210E040
:0300D3000210E137
:0300DB000210E32D
:0300E3000203C352
:0300EB0002116C93
:0300F30002097C83
:0300FB0002097D7A
:03010300020CD813
:03010B00020CD90A
:03011300020CDA01
:03011B0002114F7F
:030123000210ECDB
:03012B000210F1CE
:030133000210F4C3
:03013B000210F6B9
:030143000210EDBA
:03014B000210F2AD
:030153000210F5A2
:03015B000210F798
:0301630002114E38
:03016B000210E49B
:030173000210E691
:03017B000210E887
:030183000210EA7D
:03018B000210E57A
:030193000210E770
:03019B000210E966
:0301A3000210EB5C
:0301AB000210E25D
:0301B3000210C275
:05021200E4F509F50A06
:03022C000201B616
:0301B6000205C877
:20022F0090E61274E8F00000000090E611E0FF747F5FF00000000090E610E0FF747F5FF08C
:20024F000000000090E613E0FF747F5FF00000000090E614E0FF747F5FF00000000090E6C4
:20026F0015E0FF747F5FF00000000090E6047480F00000000090E6047402F000000000906B
:20028F00E604E4F00000000090E6187408F00000000090E6207402F00000000090E621E420
:2002AF00F00000000090E6D27402F0000000002290E7407401F090E74175F000740412109C
:2002CF00C590E68AE4F00000000090E68B7402F0000000002290E60AE0FF90E740F090E671
:2002EF008AE4F00000000090E68B7401F00000000022AF82BFB0028019BFB1028005BFB266
:20030F001F80168F0890E68BE4F000000000758201221202BF758201221202E47582012294
:20032F0075820022E582FF600475820022AD22AE23AF248D828E838FF0E41210C5758201DD
:20034F0022E582FF7004E52260047582002290E6837412F0E0FF74204FF090E6047480F08F
:20036F000000000090E6047402F00000000090E604E4F0000000007582012275820122AF5D
:20038F0082BF01047F0180027F008F8222C0E0C082C083C007C0D075D000D200AF9174EF1E
:2003AF005FF59190E65D7401F0D0D0D007D083D082D0E032C021C0E0C0F0C082C083C00796
:2003CF00C006C005C004C003C002C001C000C0D075D00090E658E0FFE4F0AE9174EF5EF56E
:2003EF009190E659E0FE30E2147401B50B0F750901750A00C281C00712092DD00790E65950
:20040F0074FFF090E65B7401F00000000090E658EFF000000000D0D0D000D001D002D003A1
:20042F00D004D005D006D007D083D082D0F0D0E0D02132C021C0E0C0F0C082C083C007C0E2
:20044F0006C005C004C003C002C001C000C0D075D000758200120FADAF9174EF5FF5919046
:20046F00E65D7410F0D0D0D000D001D002D003D004D005D006D007D083D082D0F0D0E0D095
:20048F002132C021C0E0C0F0C082C083C007C006C005C004C003C002C001C000C0D075D053
:2004AF0000758201120FADAF9174EF5FF59190E65D7420F0D0D0D000D001D002D003D004CE
:2004CF00D005D006D007D083D082D0F0D0E0D02132C0E0C0D07402B50B19150974FFB50985
:2004EF0002150AE509450A7010B2817509E8750A038006E50B7002D281C2CFD0D0D0E032A6
:20050F0090E60B7403F0C20075080090E680E0FF740A4FF09005DC1210F890E680E0FF743F
:20052F00F75FF090E600E0FF74E75F4410F0E500D2E890E668E0FF74084FF090E65CE0FF4B
:20054F0074014FF090E65AE0FF74014FF090E658E0FF74044FF090E65CE0FF74204FF0E0AD
:20056F00FF74104FF090E670E4F075B202D28175CA0C75CBFE75C800D2ADD2CAD2AF1202FE
:20058F002F02065D300005120CDBC200E508602674B1B5081E90E6A0E0FF20E11990E68B45
:2005AF00E0FFBF030990E74075F00012071E750800800375080002093D12050F120593801A
:0105CF00FB30
:03021700750B0064
:2005D00075AF03759AE4759B007E007F0090E67BE4F00EBE00010FC3EE9480EF6480948097
:2005F00040EB2290E6F3E4F090E6C3F090E6C1F090E6C2F090E6C074E4F090E6F4E4F0909D
:20061000E6D3F02290E67174FFF0F5B490E672E0FF74804FF043B6800000000090E6C5E47A
:20063000F00000000090E6C4E4F02290E6C6E4F090E6C7F090E6C8F090E6C9F090E6CAF0C0
:2006500090E6CBF090E6CCF090E6CDF02290E60174EEF090E6F574FFF01205F31205D01238
:20067000061412063B750B002285822485832585F026AD24AE25AF268D828E838FF0E52249
:200690001210C574082DFAE43EFB8F048A828B838CF0E41210C574102DFAE43EFB8F048ACA
:2006B000828B838CF0E5231210C574182DFDE43EFE8D828E838FF0E40210C58582228583CE
:2006D0002385F024AD22AE23AF248D828E838FF074B81210C574082DFAE43EFB8F048A82CA
:2006F0008B838CF074031210C574102DFAE43EFB8F048A828B838CF0E41210C574182DFD90
:20071000E43EFE8D828E838FF074360210C585820C85830D85F00EE5BB30E7FB850C828594
:200730000D83850EF0121150FC30E50890E6187409F0800690E6187408F000000000850CFE
:2007500082850D83850EF0121150FC30E60890E60174EEF0800690E60174AEF07401250C64
:20077000FAE4350DFBAC0E8A828B838CF0121150F9B90600400122850C82850D83850EF0C5
:20079000121150F820E4030208747402250CF8E4350DFEAF0E88828E838FF0121150F514C3
:2007B000E9606F79007DE4E4FEF50FF5108A828B838CF0121150F87F00C3E50F98E5106484
:2007D000808FF063F08095F05071C002C003C00489008D048E0709B900010D7522007523FA
:2007F0000688828C838FF0C006C005C004C003C002C001120679D001D002D003D004D00506
:20081000D006050FE4B50F020510D004D003D002809BE514C313FFE514C39FF514740124C0
:2008300000F511E434E4F5127513008F2275230690E40075F000120679800689118D128E11
:2008500013AD11AE12AF1374012DF511E43EF5128F138514227523008D828E838FF01206B8
:20087000790209197D007EE4E4FFF50FF5108A828B838CF0121150F87900C3E50F98E51042
:20089000648089F063F08095F05048C002C003C0048D008E018F040DBD00010E752200751E
:2008B0002300888289838CF0C007C006C005C004C003C002120679D002D003D004D005D029
:2008D00006D007050FE4B50F020510D004D003D002809B8D118E128F137402250CFAE4352A
:2008F0000DFBAC0E8A828B838CF0121150FC601974012DF511E43EF5128F138C22752300EF
:200910008D828E838FF0120679AD11AE12AF138D828E838FF01206CB750B01D322900001CE
:20093000120BA4758200120CC1750B02227402B50B38E5BB30E73390E6047480F0000000B6
:200950000090E618E4F00000000090E6047402F00000000090E6187408F00000000090E6D5
:0B09700004E4F000000000750B002202
:01097B003249
:01097C003248
:01097D003247
:01097E003246
:20097F0085822585832685F02790E601E0FC74FC5CF0E0FC74024CF090E6F574FFF0AA222B
:20099F00AB23AC248A828B838CF012115090E6F3F074012AF8E43BF98C07888289838FF061
:2009BF00121150F890E6C3F074022AFDE43BFE8C078D828E838FF012115090E6C1F0740387
:2009DF002AFDE43BFE8C078D828E838FF012115090E6C2F074052AFDE43BFE8C078D828EFA
:2009FF00838FF012115090E6C0F074062AFAE43BFB8A828B838CF0121150FA90E6F4F075B3
:200A1F00AF07AD25AE268E078F9A7E008D9B759DE48E9E7F0090E67BE0FE90E67CF00FBFD7
:200A3F00800040F190E67174FFF0F5B490E672E0FF74804FF043B6800000000090E6C4E462
:200A5F00F00000000090E6C5E4F090E6C6F090E6C7F090E6C8F090E6C9F090E6CAF090E61C
:200A7F00CBF090E6CCF090E6CDF022AD82AE83AFF0E52275F009A4FC2DF9E43EFA8F0389A4
:200A9F00828A838BF012115090E6C6F07B0074012CF9E43BFAE92DF9EA3EF88F028982880D
:200ABF00838AF012115090E6C7F074022CF9E43BFAE92DF9EA3EF88F02898288838AF01264
:200ADF00115090E6C8F074032CF9E43BFAE92DF9EA3EF88F02898288838AF012115090E67A
:200AFF00C9F074042CF9E43BFAE92DF9EA3EF88F02898288838AF012115090E6CAF07405FC
:200B1F002CF9E43BFAE92DF9EA3EF88F02898288838AF012115090E6CBF074062CF9E43BC6
:200B3F00FAE92DF9EA3EF88F02898288838AF012115090E6CCF074072CFCE43BFBEC2DFDD4
:200B5F00EB3EFE8D828E838FF012115090E6CDF022AC82AD83AEF0FF8E028F038B0190E6C9
:200B7F00CEE9F0000000007B0090E6CFEAF0000000007E008D0790E6D0EFF000000000904E
:200B9F00E6D1ECF022AE82AF838F0590E6D0EDF00000000090E6D1EEF022858224858325C9
:200BBF0085F026E5BB30E7FB90E6F1E0FC7B008524828525838526F0EC1210C5A3EB121095
:200BDF00C5E52224FFFBE52334FFFC7A008A007900C3E89522E99523506EE5BB30E7FBEAFB
:200BFF0075F002A42524F8E52535F0F9AF26AEBD7D00888289838FF0ED1210C5A3EE121089
:200C1F00C5882789288F29888289838FF0121150FEA3121150FF8A017D00E9B50308EDB56A
:200C3F000404ADBF8002ADBE8D017D00E94206ED42078527828528838529F0EE1210C5A34E
:200C5F00EF1210C50A020BEC2285822485832585F0267C008C027B00C3EA9522EB952350AB
:200C7F0040E5BB30E7FBEC75F002A42524F9E52535F0FAAB2689828A838BF0121150A31275
:200C9F001150FFF890E6F0E8F089828A838BF0121150F9A31211507A0090E6F1E9F00C8044
:190CBF00B322AF82E5BB30E7FB74044FF5BB22AF82E5BB30E7FB8FBB227C
:010CD80032E9
:010CD90032E8
:010CDA0032E7
:0601E800E478FFF6D8FDEB
:12021A0075160075170075183675191E751A1C751B1EF3
:200CDB0090E6B9E0FF24F45003020DD7EF240A83F582EF241083F583E4730D23D739D7D720
:200CFB004FD7556C84B80D0D0D0D0D0D0D0D0D0D0D0D120E51E5826003020DED90E6A0E0ED
:200D1B00FF74014FF0020DED120EDEE5826003020DED90E6A0E0FF74014FF0020DED120F7F
:200D3B002CE5826003020DED90E6A0E0FF74014FF0020DED120FD8020DED12038AAF8290AC
:200D5B00E740EFF090E68AE4F090E68B04F0020DED90E6BAE0F58212038EE582707490E6C2
:200D7B00A0E0FF74014FF0806990E6BCE0FF7522157523007524408F82120333E582700BD3
:200D9B0090E6A0E0FF74014FF0804790E740E515F090E68AE4F090E68B04F0803590E6BC77
:200DBB00E0FF90E6BAE0F5228F82120350E582702190E6A0E0FF74014FF0801690E6B9E056
:200DDB00F582120301E582700990E6A0E0FF74014FF090E6A0E0FF74804FF022AF828F06D2
:200DFB0053067FEE24F75003020E4DEE240A83F582EE240D83F583E473262A3D4D414D4513
:200E1B004D490E0E0E0E0E0E0E0E0E90E6A022EF30E7067EA27FE680047EA17FE68E828F33
:200E3B00832290E6A32290E6A42290E6A52290E6A6229000002290E6B8E0FFBF8002801F61
:200E5B00BF81028005BF8273803490E740E4F090E741F090E68AF090E68B7402F08060E5F9
:200E7B001725E0FFE516420790E740EFF090E741E4F090E68AF090E68B7402F0804190E648
:200E9B00BCE0F582120DF7AE82AF838E048F05EE4F7003F582228C828D83E0FC30E0047FB0
:200EBB000180027F0090E740EFF090E741E4F090E68AF090E68B7402F0800475820022758A
:200EDB0082012290E6B8E0FF6005BF0237801190E6BAE0FFBF01057517008031758200222D
:200EFB0090E6BAE0701A90E6BCE0F582120DF7AE82AF83E0FD5305FE8E828F83EDF0800D7D
:200F1B007582002290E6B9E0F5820203017582012290E6B8E0FF6005BF026A801B90E6BA8F
:200F3B00E0FFBF0202806790E6BAE0FFBF0105751701805A7582002290E6BAE0704390E680
:200F5B00BCE0F582120DF7AE82AF83EE4F7003F582228E828F83E0FD4305018E828F83ED4B
:200F7B00F090E6BCE0FF53070F90E6BCE05480C423541FFE90E6832FF0E0FF74204FF08064
:200F9B000D7582002290E6B9E0F58202030175820122AF82D20110AF02C201EF600E7518F8
:200FBB001C75191E751A36751B1E800C75183675191E751A1C751B1EA20192AF2290E6BB50
:200FDB00E0FFBF01028019BF02028029BF03028033BF0603021093BF07030210A80210B720
:200FFB007E007F1E8F0690E6B3EEF07E007F1E90E6B4EEF022AF1990E6B3EFF0AE1890E6CE
:20101B00B4EEF0227D507E1E7F8090E6BAE0F5227B008B020BEAB5220280428D008E018F2F
:20103B00028D828E838FF012115028F8E439F9880589068A0774012DF9E43EFA8F04898249
:20105B008A838CF0121150F9B9030280067D007E007F00ED4E6006C3E5229B50B5ED4E601C
:20107B000D8E0790E6B3EFF090E6B4EDF02290E6A0E0FF74014FF0227E127F1E8F0690E67F
:20109B00B3EEF07E127F1E90E6B4EEF022AF1B90E6B3EFF0AE1A90E6B4EEF02290E6A0E093
:0610BB00FF74014FF0225A
:2001C6007900E94400601B7A00901171780075921CE493F2A308B800020592D9F4DAF2755E
:0201E60092FF86
:0110C10032FC
:0110C20032FB
:0110C30032FA
:0110C40032F9
:1B10C50020F71130F6138883A88220F509F6A8837583002280FEF280F5F0222A
:0110E00032DD
:0110E10032DC
:0110E20032DB
:0110E30032DA
:03004300021F0099
:201F000002039C000210C40002097E000210C100020442000204910002097B000210ED008A
:201F20000210EE000210EF000210F0000210F3000210C3000210E0000210E1000210E300EA
:201F40000203C3000210ED0002116C0002097C0002097D00020CD800020CD900020CDA0077
:201F600002114F000210ED000210ED000210ED000210EC000210F1000210F4000210F600F3
:201F80000210F2000210F5000210F70002114E000210E4000210E6000210E8000210EA00E8
:181FA0000210E5000210E7000210E9000210EB000210E2000210C20079
:0110E40032D9
:0110E50032D8
:2001EE007800E84400600A790075921CE4F309D8FC7800E84400600C7900901C00E4F0A3E7
:04020E00D8FCD9FA45
:0110E60032D7
:0110E70032D6
:0110E80032D5
:0110E90032D4
:0110EA0032D3
:0110EB0032D2
:0110EC0032D1
:0110ED0032D0
:0110EE0032CF
:0110EF0032CE
:0110F00032CD
:0110F10032CC
:0110F20032CB
:0110F30032CA
:0110F40032C9
:0110F50032C8
:0110F60032C7
:0110F70032C6
:2010F800AE82AF8390E600E05418C423541FFD70057CB1FD801C90E600E05418C423541F06
:20111800FBBB01067A617B0180047AC27B028A048B058C228D23152274FFB522021523E54A
:1611380022452370F1EE24FFFAEF34FFFB8A068B07EA4B70DD22C8
:01114E00326E
:01114F00326D
:0D01B90075812912116DE58260030201B607
:1C11500020F71430F6148883A88220F507E6A88375830022E280F7E49322E022AE
:01116C003250
:04116D007582002265
:00000001FF
